{
  "contractName": "FinalizableCrowdsale",
  "abi": [
    {
      "constant": true,
      "inputs": [],
      "name": "isFinalized",
      "outputs": [
        {
          "name": "",
          "type": "bool"
        }
      ],
      "payable": false,
      "stateMutability": "view",
      "type": "function"
    },
    {
      "constant": true,
      "inputs": [],
      "name": "owner",
      "outputs": [
        {
          "name": "",
          "type": "address"
        }
      ],
      "payable": false,
      "stateMutability": "view",
      "type": "function"
    },
    {
      "constant": false,
      "inputs": [
        {
          "name": "newOwner",
          "type": "address"
        }
      ],
      "name": "transferOwnership",
      "outputs": [],
      "payable": false,
      "stateMutability": "nonpayable",
      "type": "function"
    },
    {
      "constant": true,
      "inputs": [],
      "name": "token",
      "outputs": [
        {
          "name": "",
          "type": "address"
        }
      ],
      "payable": false,
      "stateMutability": "view",
      "type": "function"
    },
    {
      "anonymous": false,
      "inputs": [],
      "name": "Finalized",
      "type": "event"
    },
    {
      "anonymous": false,
      "inputs": [
        {
          "indexed": true,
          "name": "previousOwner",
          "type": "address"
        },
        {
          "indexed": true,
          "name": "newOwner",
          "type": "address"
        }
      ],
      "name": "OwnershipTransferred",
      "type": "event"
    },
    {
      "anonymous": false,
      "inputs": [
        {
          "indexed": true,
          "name": "purchaser",
          "type": "address"
        },
        {
          "indexed": true,
          "name": "beneficiary",
          "type": "address"
        },
        {
          "indexed": false,
          "name": "value",
          "type": "uint256"
        },
        {
          "indexed": false,
          "name": "amount",
          "type": "uint256"
        }
      ],
      "name": "TokenPurchase",
      "type": "event"
    },
    {
      "constant": false,
      "inputs": [],
      "name": "finalize",
      "outputs": [],
      "payable": false,
      "stateMutability": "nonpayable",
      "type": "function"
    }
  ],
  "bytecode": "0x60606040526000600160146101000a81548160ff02191690831515021790555061003a6100bf64010000000002610417176401000000009004565b6000806101000a81548173ffffffffffffffffffffffffffffffffffffffff021916908373ffffffffffffffffffffffffffffffffffffffff16021790555033600160006101000a81548173ffffffffffffffffffffffffffffffffffffffff021916908373ffffffffffffffffffffffffffffffffffffffff1602179055506100f4565b60006100c96100e4565b604051809103906000f08015156100df57600080fd5b905090565b604051611ee28061245d83390190565b61235a806101036000396000f30060606040526004361061006d576000357c0100000000000000000000000000000000000000000000000000000000900463ffffffff1680634bb278f3146100725780638d4e4083146100875780638da5cb5b146100b4578063f2fde38b14610109578063fc0c546a14610142575b600080fd5b341561007d57600080fd5b610085610197565b005b341561009257600080fd5b61009a61025f565b604051808215151515815260200191505060405180910390f35b34156100bf57600080fd5b6100c7610272565b604051808273ffffffffffffffffffffffffffffffffffffffff1673ffffffffffffffffffffffffffffffffffffffff16815260200191505060405180910390f35b341561011457600080fd5b610140600480803573ffffffffffffffffffffffffffffffffffffffff16906020019091905050610298565b005b341561014d57600080fd5b6101556103f0565b604051808273ffffffffffffffffffffffffffffffffffffffff1673ffffffffffffffffffffffffffffffffffffffff16815260200191505060405180910390f35b600160009054906101000a900473ffffffffffffffffffffffffffffffffffffffff1673ffffffffffffffffffffffffffffffffffffffff163373ffffffffffffffffffffffffffffffffffffffff161415156101f357600080fd5b600160149054906101000a900460ff1615151561020f57600080fd5b610217610415565b7f6823b073d48d6e3a7d385eeb601452d680e74bb46afe3255a7d778f3a9b1768160405160405180910390a160018060146101000a81548160ff021916908315150217905550565b600160149054906101000a900460ff1681565b600160009054906101000a900473ffffffffffffffffffffffffffffffffffffffff1681565b600160009054906101000a900473ffffffffffffffffffffffffffffffffffffffff1673ffffffffffffffffffffffffffffffffffffffff163373ffffffffffffffffffffffffffffffffffffffff161415156102f457600080fd5b600073ffffffffffffffffffffffffffffffffffffffff168173ffffffffffffffffffffffffffffffffffffffff161415151561033057600080fd5b8073ffffffffffffffffffffffffffffffffffffffff16600160009054906101000a900473ffffffffffffffffffffffffffffffffffffffff1673ffffffffffffffffffffffffffffffffffffffff167f8be0079c531659141344cd1fd0a4f28419497f9722a3daafe3b4186f6b6457e060405160405180910390a380600160006101000a81548173ffffffffffffffffffffffffffffffffffffffff021916908373ffffffffffffffffffffffffffffffffffffffff16021790555050565b6000809054906101000a900473ffffffffffffffffffffffffffffffffffffffff1681565b565b600061042161043c565b604051809103906000f080151561043757600080fd5b905090565b604051611ee28061044d83390190560060606040526000600360146101000a81548160ff0219169083151502179055506000600360156101000a81548160ff021916908315150217905550341561004557600080fd5b33600360006101000a81548173ffffffffffffffffffffffffffffffffffffffff021916908373ffffffffffffffffffffffffffffffffffffffff1602179055506001600360156101000a81548160ff021916908315150217905550611e32806100b06000396000f30060606040526004361061011d576000357c0100000000000000000000000000000000000000000000000000000000900463ffffffff16806305d2035b1461012257806306fdde031461014f578063095ea7b3146101dd57806318160ddd1461023757806323b872dd14610260578063313ce567146102d95780633f4ba83a1461030857806340c10f191461031d578063453c1671146103775780635c975abb146103d3578063661884631461040057806370a082311461045a57806374a01fc2146104a75780637d64bcb4146104f85780638456cb59146105255780638da5cb5b1461053a57806395d89b411461058f578063a9059cbb1461061d578063d73dd62314610677578063dd62ed3e146106d1578063f2fde38b1461073d575b600080fd5b341561012d57600080fd5b610135610776565b604051808215151515815260200191505060405180910390f35b341561015a57600080fd5b610162610789565b6040518080602001828103825283818151815260200191508051906020019080838360005b838110156101a2578082015181840152602081019050610187565b50505050905090810190601f1680156101cf5780820380516001836020036101000a031916815260200191505b509250505060405180910390f35b34156101e857600080fd5b61021d600480803573ffffffffffffffffffffffffffffffffffffffff169060200190919080359060200190919050506107c2565b604051808215151515815260200191505060405180910390f35b341561024257600080fd5b61024a61084d565b6040518082815260200191505060405180910390f35b341561026b57600080fd5b6102bf600480803573ffffffffffffffffffffffffffffffffffffffff1690602001909190803573ffffffffffffffffffffffffffffffffffffffff16906020019091908035906020019091905050610853565b604051808215151515815260200191505060405180910390f35b34156102e457600080fd5b6102ec6108e0565b604051808260ff1660ff16815260200191505060405180910390f35b341561031357600080fd5b61031b6108e5565b005b341561032857600080fd5b61035d600480803573ffffffffffffffffffffffffffffffffffffffff169060200190919080359060200190919050506109a5565b604051808215151515815260200191505060405180910390f35b341561038257600080fd5b6103b9600480803573ffffffffffffffffffffffffffffffffffffffff169060200190919080351515906020019091905050610b77565b604051808215151515815260200191505060405180910390f35b34156103de57600080fd5b6103e6610ca5565b604051808215151515815260200191505060405180910390f35b341561040b57600080fd5b610440600480803573ffffffffffffffffffffffffffffffffffffffff16906020019091908035906020019091905050610cb8565b604051808215151515815260200191505060405180910390f35b341561046557600080fd5b610491600480803573ffffffffffffffffffffffffffffffffffffffff16906020019091905050610d43565b6040518082815260200191505060405180910390f35b34156104b257600080fd5b6104de600480803573ffffffffffffffffffffffffffffffffffffffff16906020019091905050610d8c565b604051808215151515815260200191505060405180910390f35b341561050357600080fd5b61050b610dac565b604051808215151515815260200191505060405180910390f35b341561053057600080fd5b610538610e58565b005b341561054557600080fd5b61054d610f19565b604051808273ffffffffffffffffffffffffffffffffffffffff1673ffffffffffffffffffffffffffffffffffffffff16815260200191505060405180910390f35b341561059a57600080fd5b6105a2610f3f565b6040518080602001828103825283818151815260200191508051906020019080838360005b838110156105e25780820151818401526020810190506105c7565b50505050905090810190601f16801561060f5780820380516001836020036101000a031916815260200191505b509250505060405180910390f35b341561062857600080fd5b61065d600480803573ffffffffffffffffffffffffffffffffffffffff16906020019091908035906020019091905050610f78565b604051808215151515815260200191505060405180910390f35b341561068257600080fd5b6106b7600480803573ffffffffffffffffffffffffffffffffffffffff16906020019091908035906020019091905050611003565b604051808215151515815260200191505060405180910390f35b34156106dc57600080fd5b610727600480803573ffffffffffffffffffffffffffffffffffffffff1690602001909190803573ffffffffffffffffffffffffffffffffffffffff1690602001909190505061108e565b6040518082815260200191505060405180910390f35b341561074857600080fd5b610774600480803573ffffffffffffffffffffffffffffffffffffffff16906020019091905050611115565b005b600360149054906101000a900460ff1681565b6040805190810160405280600981526020017f50495020546f6b656e000000000000000000000000000000000000000000000081525081565b6000600360159054906101000a900460ff161515156107e057600080fd5b33600460008273ffffffffffffffffffffffffffffffffffffffff1673ffffffffffffffffffffffffffffffffffffffff16815260200190815260200160002060009054906101000a900460ff1615151561083a57600080fd5b610844848461126d565b91505092915050565b60005481565b6000600360159054906101000a900460ff1615151561087157600080fd5b83600460008273ffffffffffffffffffffffffffffffffffffffff1673ffffffffffffffffffffffffffffffffffffffff16815260200190815260200160002060009054906101000a900460ff161515156108cb57600080fd5b6108d685858561135f565b9150509392505050565b601281565b600360009054906101000a900473ffffffffffffffffffffffffffffffffffffffff1673ffffffffffffffffffffffffffffffffffffffff163373ffffffffffffffffffffffffffffffffffffffff1614151561094157600080fd5b600360159054906101000a900460ff16151561095c57600080fd5b6000600360156101000a81548160ff0219169083151502179055507f7805862f689e2f13df9f062ff482ad3ad112aca9e0847911ed832e158c525b3360405160405180910390a1565b6000600360009054906101000a900473ffffffffffffffffffffffffffffffffffffffff1673ffffffffffffffffffffffffffffffffffffffff163373ffffffffffffffffffffffffffffffffffffffff16141515610a0357600080fd5b600360149054906101000a900460ff16151515610a1f57600080fd5b610a348260005461171e90919063ffffffff16565b600081905550610a8c82600160008673ffffffffffffffffffffffffffffffffffffffff1673ffffffffffffffffffffffffffffffffffffffff1681526020019081526020016000205461171e90919063ffffffff16565b600160008573ffffffffffffffffffffffffffffffffffffffff1673ffffffffffffffffffffffffffffffffffffffff168152602001908152602001600020819055508273ffffffffffffffffffffffffffffffffffffffff167f0f6798a560793a54c3bcfe86a93cde1e73087d944c0ea20544137d4121396885836040518082815260200191505060405180910390a28273ffffffffffffffffffffffffffffffffffffffff1660007fddf252ad1be2c89b69c2b068fc378daa952ba7f163c4a11628f55a4df523b3ef846040518082815260200191505060405180910390a36001905092915050565b6000600360009054906101000a900473ffffffffffffffffffffffffffffffffffffffff1673ffffffffffffffffffffffffffffffffffffffff163373ffffffffffffffffffffffffffffffffffffffff16141515610bd557600080fd5b81600460008573ffffffffffffffffffffffffffffffffffffffff1673ffffffffffffffffffffffffffffffffffffffff16815260200190815260200160002060006101000a81548160ff0219169083151502179055507f496447b94d18eeeef8885455be26cce902f0536fcdc294f2cdde8f1ab79414858383604051808373ffffffffffffffffffffffffffffffffffffffff1673ffffffffffffffffffffffffffffffffffffffff168152602001821515151581526020019250505060405180910390a16001905092915050565b600360159054906101000a900460ff1681565b6000600360159054906101000a900460ff16151515610cd657600080fd5b33600460008273ffffffffffffffffffffffffffffffffffffffff1673ffffffffffffffffffffffffffffffffffffffff16815260200190815260200160002060009054906101000a900460ff16151515610d3057600080fd5b610d3a848461173c565b91505092915050565b6000600160008373ffffffffffffffffffffffffffffffffffffffff1673ffffffffffffffffffffffffffffffffffffffff168152602001908152602001600020549050919050565b60046020528060005260406000206000915054906101000a900460ff1681565b6000600360009054906101000a900473ffffffffffffffffffffffffffffffffffffffff1673ffffffffffffffffffffffffffffffffffffffff163373ffffffffffffffffffffffffffffffffffffffff16141515610e0a57600080fd5b6001600360146101000a81548160ff0219169083151502179055507fae5184fba832cb2b1f702aca6117b8d265eaf03ad33eb133f19dde0f5920fa0860405160405180910390a16001905090565b600360009054906101000a900473ffffffffffffffffffffffffffffffffffffffff1673ffffffffffffffffffffffffffffffffffffffff163373ffffffffffffffffffffffffffffffffffffffff16141515610eb457600080fd5b600360159054906101000a900460ff16151515610ed057600080fd5b6001600360156101000a81548160ff0219169083151502179055507f6985a02210a168e66602d3235cb6db0e70f92b3ba4d376a33c0f3d9434bff62560405160405180910390a1565b600360009054906101000a900473ffffffffffffffffffffffffffffffffffffffff1681565b6040805190810160405280600381526020017f504950000000000000000000000000000000000000000000000000000000000081525081565b6000600360159054906101000a900460ff16151515610f9657600080fd5b33600460008273ffffffffffffffffffffffffffffffffffffffff1673ffffffffffffffffffffffffffffffffffffffff16815260200190815260200160002060009054906101000a900460ff16151515610ff057600080fd5b610ffa84846119cd565b91505092915050565b6000600360159054906101000a900460ff1615151561102157600080fd5b33600460008273ffffffffffffffffffffffffffffffffffffffff1673ffffffffffffffffffffffffffffffffffffffff16815260200190815260200160002060009054906101000a900460ff1615151561107b57600080fd5b6110858484611bf1565b91505092915050565b6000600260008473ffffffffffffffffffffffffffffffffffffffff1673ffffffffffffffffffffffffffffffffffffffff16815260200190815260200160002060008373ffffffffffffffffffffffffffffffffffffffff1673ffffffffffffffffffffffffffffffffffffffff16815260200190815260200160002054905092915050565b600360009054906101000a900473ffffffffffffffffffffffffffffffffffffffff1673ffffffffffffffffffffffffffffffffffffffff163373ffffffffffffffffffffffffffffffffffffffff1614151561117157600080fd5b600073ffffffffffffffffffffffffffffffffffffffff168173ffffffffffffffffffffffffffffffffffffffff16141515156111ad57600080fd5b8073ffffffffffffffffffffffffffffffffffffffff16600360009054906101000a900473ffffffffffffffffffffffffffffffffffffffff1673ffffffffffffffffffffffffffffffffffffffff167f8be0079c531659141344cd1fd0a4f28419497f9722a3daafe3b4186f6b6457e060405160405180910390a380600360006101000a81548173ffffffffffffffffffffffffffffffffffffffff021916908373ffffffffffffffffffffffffffffffffffffffff16021790555050565b600081600260003373ffffffffffffffffffffffffffffffffffffffff1673ffffffffffffffffffffffffffffffffffffffff16815260200190815260200160002060008573ffffffffffffffffffffffffffffffffffffffff1673ffffffffffffffffffffffffffffffffffffffff168152602001908152602001600020819055508273ffffffffffffffffffffffffffffffffffffffff163373ffffffffffffffffffffffffffffffffffffffff167f8c5be1e5ebec7d5bd14f71427d1e84f3dd0314c0f7b2291e5b200ac8c7c3b925846040518082815260200191505060405180910390a36001905092915050565b60008073ffffffffffffffffffffffffffffffffffffffff168373ffffffffffffffffffffffffffffffffffffffff161415151561139c57600080fd5b600160008573ffffffffffffffffffffffffffffffffffffffff1673ffffffffffffffffffffffffffffffffffffffff1681526020019081526020016000205482111515156113ea57600080fd5b600260008573ffffffffffffffffffffffffffffffffffffffff1673ffffffffffffffffffffffffffffffffffffffff16815260200190815260200160002060003373ffffffffffffffffffffffffffffffffffffffff1673ffffffffffffffffffffffffffffffffffffffff16815260200190815260200160002054821115151561147557600080fd5b6114c782600160008773ffffffffffffffffffffffffffffffffffffffff1673ffffffffffffffffffffffffffffffffffffffff16815260200190815260200160002054611ded90919063ffffffff16565b600160008673ffffffffffffffffffffffffffffffffffffffff1673ffffffffffffffffffffffffffffffffffffffff1681526020019081526020016000208190555061155c82600160008673ffffffffffffffffffffffffffffffffffffffff1673ffffffffffffffffffffffffffffffffffffffff1681526020019081526020016000205461171e90919063ffffffff16565b600160008573ffffffffffffffffffffffffffffffffffffffff1673ffffffffffffffffffffffffffffffffffffffff1681526020019081526020016000208190555061162e82600260008773ffffffffffffffffffffffffffffffffffffffff1673ffffffffffffffffffffffffffffffffffffffff16815260200190815260200160002060003373ffffffffffffffffffffffffffffffffffffffff1673ffffffffffffffffffffffffffffffffffffffff16815260200190815260200160002054611ded90919063ffffffff16565b600260008673ffffffffffffffffffffffffffffffffffffffff1673ffffffffffffffffffffffffffffffffffffffff16815260200190815260200160002060003373ffffffffffffffffffffffffffffffffffffffff1673ffffffffffffffffffffffffffffffffffffffff168152602001908152602001600020819055508273ffffffffffffffffffffffffffffffffffffffff168473ffffffffffffffffffffffffffffffffffffffff167fddf252ad1be2c89b69c2b068fc378daa952ba7f163c4a11628f55a4df523b3ef846040518082815260200191505060405180910390a3600190509392505050565b600080828401905083811015151561173257fe5b8091505092915050565b600080600260003373ffffffffffffffffffffffffffffffffffffffff1673ffffffffffffffffffffffffffffffffffffffff16815260200190815260200160002060008573ffffffffffffffffffffffffffffffffffffffff1673ffffffffffffffffffffffffffffffffffffffff1681526020019081526020016000205490508083111561184d576000600260003373ffffffffffffffffffffffffffffffffffffffff1673ffffffffffffffffffffffffffffffffffffffff16815260200190815260200160002060008673ffffffffffffffffffffffffffffffffffffffff1673ffffffffffffffffffffffffffffffffffffffff168152602001908152602001600020819055506118e1565b6118608382611ded90919063ffffffff16565b600260003373ffffffffffffffffffffffffffffffffffffffff1673ffffffffffffffffffffffffffffffffffffffff16815260200190815260200160002060008673ffffffffffffffffffffffffffffffffffffffff1673ffffffffffffffffffffffffffffffffffffffff168152602001908152602001600020819055505b8373ffffffffffffffffffffffffffffffffffffffff163373ffffffffffffffffffffffffffffffffffffffff167f8c5be1e5ebec7d5bd14f71427d1e84f3dd0314c0f7b2291e5b200ac8c7c3b925600260003373ffffffffffffffffffffffffffffffffffffffff1673ffffffffffffffffffffffffffffffffffffffff16815260200190815260200160002060008873ffffffffffffffffffffffffffffffffffffffff1673ffffffffffffffffffffffffffffffffffffffff168152602001908152602001600020546040518082815260200191505060405180910390a3600191505092915050565b60008073ffffffffffffffffffffffffffffffffffffffff168373ffffffffffffffffffffffffffffffffffffffff1614151515611a0a57600080fd5b600160003373ffffffffffffffffffffffffffffffffffffffff1673ffffffffffffffffffffffffffffffffffffffff168152602001908152602001600020548211151515611a5857600080fd5b611aaa82600160003373ffffffffffffffffffffffffffffffffffffffff1673ffffffffffffffffffffffffffffffffffffffff16815260200190815260200160002054611ded90919063ffffffff16565b600160003373ffffffffffffffffffffffffffffffffffffffff1673ffffffffffffffffffffffffffffffffffffffff16815260200190815260200160002081905550611b3f82600160008673ffffffffffffffffffffffffffffffffffffffff1673ffffffffffffffffffffffffffffffffffffffff1681526020019081526020016000205461171e90919063ffffffff16565b600160008573ffffffffffffffffffffffffffffffffffffffff1673ffffffffffffffffffffffffffffffffffffffff168152602001908152602001600020819055508273ffffffffffffffffffffffffffffffffffffffff163373ffffffffffffffffffffffffffffffffffffffff167fddf252ad1be2c89b69c2b068fc378daa952ba7f163c4a11628f55a4df523b3ef846040518082815260200191505060405180910390a36001905092915050565b6000611c8282600260003373ffffffffffffffffffffffffffffffffffffffff1673ffffffffffffffffffffffffffffffffffffffff16815260200190815260200160002060008673ffffffffffffffffffffffffffffffffffffffff1673ffffffffffffffffffffffffffffffffffffffff1681526020019081526020016000205461171e90919063ffffffff16565b600260003373ffffffffffffffffffffffffffffffffffffffff1673ffffffffffffffffffffffffffffffffffffffff16815260200190815260200160002060008573ffffffffffffffffffffffffffffffffffffffff1673ffffffffffffffffffffffffffffffffffffffff168152602001908152602001600020819055508273ffffffffffffffffffffffffffffffffffffffff163373ffffffffffffffffffffffffffffffffffffffff167f8c5be1e5ebec7d5bd14f71427d1e84f3dd0314c0f7b2291e5b200ac8c7c3b925600260003373ffffffffffffffffffffffffffffffffffffffff1673ffffffffffffffffffffffffffffffffffffffff16815260200190815260200160002060008773ffffffffffffffffffffffffffffffffffffffff1673ffffffffffffffffffffffffffffffffffffffff168152602001908152602001600020546040518082815260200191505060405180910390a36001905092915050565b6000828211151515611dfb57fe5b8183039050929150505600a165627a7a72305820e9ad52e3f30f4b41c8b5e18f60a5c8b6f14510b477a581f8cb282308837552490029a165627a7a7230582019793a93940fc4972183aa110fc551507590717b0297dc4c70ee8737f45cd1ac002960606040526000600360146101000a81548160ff0219169083151502179055506000600360156101000a81548160ff021916908315150217905550341561004557600080fd5b33600360006101000a81548173ffffffffffffffffffffffffffffffffffffffff021916908373ffffffffffffffffffffffffffffffffffffffff1602179055506001600360156101000a81548160ff021916908315150217905550611e32806100b06000396000f30060606040526004361061011d576000357c0100000000000000000000000000000000000000000000000000000000900463ffffffff16806305d2035b1461012257806306fdde031461014f578063095ea7b3146101dd57806318160ddd1461023757806323b872dd14610260578063313ce567146102d95780633f4ba83a1461030857806340c10f191461031d578063453c1671146103775780635c975abb146103d3578063661884631461040057806370a082311461045a57806374a01fc2146104a75780637d64bcb4146104f85780638456cb59146105255780638da5cb5b1461053a57806395d89b411461058f578063a9059cbb1461061d578063d73dd62314610677578063dd62ed3e146106d1578063f2fde38b1461073d575b600080fd5b341561012d57600080fd5b610135610776565b604051808215151515815260200191505060405180910390f35b341561015a57600080fd5b610162610789565b6040518080602001828103825283818151815260200191508051906020019080838360005b838110156101a2578082015181840152602081019050610187565b50505050905090810190601f1680156101cf5780820380516001836020036101000a031916815260200191505b509250505060405180910390f35b34156101e857600080fd5b61021d600480803573ffffffffffffffffffffffffffffffffffffffff169060200190919080359060200190919050506107c2565b604051808215151515815260200191505060405180910390f35b341561024257600080fd5b61024a61084d565b6040518082815260200191505060405180910390f35b341561026b57600080fd5b6102bf600480803573ffffffffffffffffffffffffffffffffffffffff1690602001909190803573ffffffffffffffffffffffffffffffffffffffff16906020019091908035906020019091905050610853565b604051808215151515815260200191505060405180910390f35b34156102e457600080fd5b6102ec6108e0565b604051808260ff1660ff16815260200191505060405180910390f35b341561031357600080fd5b61031b6108e5565b005b341561032857600080fd5b61035d600480803573ffffffffffffffffffffffffffffffffffffffff169060200190919080359060200190919050506109a5565b604051808215151515815260200191505060405180910390f35b341561038257600080fd5b6103b9600480803573ffffffffffffffffffffffffffffffffffffffff169060200190919080351515906020019091905050610b77565b604051808215151515815260200191505060405180910390f35b34156103de57600080fd5b6103e6610ca5565b604051808215151515815260200191505060405180910390f35b341561040b57600080fd5b610440600480803573ffffffffffffffffffffffffffffffffffffffff16906020019091908035906020019091905050610cb8565b604051808215151515815260200191505060405180910390f35b341561046557600080fd5b610491600480803573ffffffffffffffffffffffffffffffffffffffff16906020019091905050610d43565b6040518082815260200191505060405180910390f35b34156104b257600080fd5b6104de600480803573ffffffffffffffffffffffffffffffffffffffff16906020019091905050610d8c565b604051808215151515815260200191505060405180910390f35b341561050357600080fd5b61050b610dac565b604051808215151515815260200191505060405180910390f35b341561053057600080fd5b610538610e58565b005b341561054557600080fd5b61054d610f19565b604051808273ffffffffffffffffffffffffffffffffffffffff1673ffffffffffffffffffffffffffffffffffffffff16815260200191505060405180910390f35b341561059a57600080fd5b6105a2610f3f565b6040518080602001828103825283818151815260200191508051906020019080838360005b838110156105e25780820151818401526020810190506105c7565b50505050905090810190601f16801561060f5780820380516001836020036101000a031916815260200191505b509250505060405180910390f35b341561062857600080fd5b61065d600480803573ffffffffffffffffffffffffffffffffffffffff16906020019091908035906020019091905050610f78565b604051808215151515815260200191505060405180910390f35b341561068257600080fd5b6106b7600480803573ffffffffffffffffffffffffffffffffffffffff16906020019091908035906020019091905050611003565b604051808215151515815260200191505060405180910390f35b34156106dc57600080fd5b610727600480803573ffffffffffffffffffffffffffffffffffffffff1690602001909190803573ffffffffffffffffffffffffffffffffffffffff1690602001909190505061108e565b6040518082815260200191505060405180910390f35b341561074857600080fd5b610774600480803573ffffffffffffffffffffffffffffffffffffffff16906020019091905050611115565b005b600360149054906101000a900460ff1681565b6040805190810160405280600981526020017f50495020546f6b656e000000000000000000000000000000000000000000000081525081565b6000600360159054906101000a900460ff161515156107e057600080fd5b33600460008273ffffffffffffffffffffffffffffffffffffffff1673ffffffffffffffffffffffffffffffffffffffff16815260200190815260200160002060009054906101000a900460ff1615151561083a57600080fd5b610844848461126d565b91505092915050565b60005481565b6000600360159054906101000a900460ff1615151561087157600080fd5b83600460008273ffffffffffffffffffffffffffffffffffffffff1673ffffffffffffffffffffffffffffffffffffffff16815260200190815260200160002060009054906101000a900460ff161515156108cb57600080fd5b6108d685858561135f565b9150509392505050565b601281565b600360009054906101000a900473ffffffffffffffffffffffffffffffffffffffff1673ffffffffffffffffffffffffffffffffffffffff163373ffffffffffffffffffffffffffffffffffffffff1614151561094157600080fd5b600360159054906101000a900460ff16151561095c57600080fd5b6000600360156101000a81548160ff0219169083151502179055507f7805862f689e2f13df9f062ff482ad3ad112aca9e0847911ed832e158c525b3360405160405180910390a1565b6000600360009054906101000a900473ffffffffffffffffffffffffffffffffffffffff1673ffffffffffffffffffffffffffffffffffffffff163373ffffffffffffffffffffffffffffffffffffffff16141515610a0357600080fd5b600360149054906101000a900460ff16151515610a1f57600080fd5b610a348260005461171e90919063ffffffff16565b600081905550610a8c82600160008673ffffffffffffffffffffffffffffffffffffffff1673ffffffffffffffffffffffffffffffffffffffff1681526020019081526020016000205461171e90919063ffffffff16565b600160008573ffffffffffffffffffffffffffffffffffffffff1673ffffffffffffffffffffffffffffffffffffffff168152602001908152602001600020819055508273ffffffffffffffffffffffffffffffffffffffff167f0f6798a560793a54c3bcfe86a93cde1e73087d944c0ea20544137d4121396885836040518082815260200191505060405180910390a28273ffffffffffffffffffffffffffffffffffffffff1660007fddf252ad1be2c89b69c2b068fc378daa952ba7f163c4a11628f55a4df523b3ef846040518082815260200191505060405180910390a36001905092915050565b6000600360009054906101000a900473ffffffffffffffffffffffffffffffffffffffff1673ffffffffffffffffffffffffffffffffffffffff163373ffffffffffffffffffffffffffffffffffffffff16141515610bd557600080fd5b81600460008573ffffffffffffffffffffffffffffffffffffffff1673ffffffffffffffffffffffffffffffffffffffff16815260200190815260200160002060006101000a81548160ff0219169083151502179055507f496447b94d18eeeef8885455be26cce902f0536fcdc294f2cdde8f1ab79414858383604051808373ffffffffffffffffffffffffffffffffffffffff1673ffffffffffffffffffffffffffffffffffffffff168152602001821515151581526020019250505060405180910390a16001905092915050565b600360159054906101000a900460ff1681565b6000600360159054906101000a900460ff16151515610cd657600080fd5b33600460008273ffffffffffffffffffffffffffffffffffffffff1673ffffffffffffffffffffffffffffffffffffffff16815260200190815260200160002060009054906101000a900460ff16151515610d3057600080fd5b610d3a848461173c565b91505092915050565b6000600160008373ffffffffffffffffffffffffffffffffffffffff1673ffffffffffffffffffffffffffffffffffffffff168152602001908152602001600020549050919050565b60046020528060005260406000206000915054906101000a900460ff1681565b6000600360009054906101000a900473ffffffffffffffffffffffffffffffffffffffff1673ffffffffffffffffffffffffffffffffffffffff163373ffffffffffffffffffffffffffffffffffffffff16141515610e0a57600080fd5b6001600360146101000a81548160ff0219169083151502179055507fae5184fba832cb2b1f702aca6117b8d265eaf03ad33eb133f19dde0f5920fa0860405160405180910390a16001905090565b600360009054906101000a900473ffffffffffffffffffffffffffffffffffffffff1673ffffffffffffffffffffffffffffffffffffffff163373ffffffffffffffffffffffffffffffffffffffff16141515610eb457600080fd5b600360159054906101000a900460ff16151515610ed057600080fd5b6001600360156101000a81548160ff0219169083151502179055507f6985a02210a168e66602d3235cb6db0e70f92b3ba4d376a33c0f3d9434bff62560405160405180910390a1565b600360009054906101000a900473ffffffffffffffffffffffffffffffffffffffff1681565b6040805190810160405280600381526020017f504950000000000000000000000000000000000000000000000000000000000081525081565b6000600360159054906101000a900460ff16151515610f9657600080fd5b33600460008273ffffffffffffffffffffffffffffffffffffffff1673ffffffffffffffffffffffffffffffffffffffff16815260200190815260200160002060009054906101000a900460ff16151515610ff057600080fd5b610ffa84846119cd565b91505092915050565b6000600360159054906101000a900460ff1615151561102157600080fd5b33600460008273ffffffffffffffffffffffffffffffffffffffff1673ffffffffffffffffffffffffffffffffffffffff16815260200190815260200160002060009054906101000a900460ff1615151561107b57600080fd5b6110858484611bf1565b91505092915050565b6000600260008473ffffffffffffffffffffffffffffffffffffffff1673ffffffffffffffffffffffffffffffffffffffff16815260200190815260200160002060008373ffffffffffffffffffffffffffffffffffffffff1673ffffffffffffffffffffffffffffffffffffffff16815260200190815260200160002054905092915050565b600360009054906101000a900473ffffffffffffffffffffffffffffffffffffffff1673ffffffffffffffffffffffffffffffffffffffff163373ffffffffffffffffffffffffffffffffffffffff1614151561117157600080fd5b600073ffffffffffffffffffffffffffffffffffffffff168173ffffffffffffffffffffffffffffffffffffffff16141515156111ad57600080fd5b8073ffffffffffffffffffffffffffffffffffffffff16600360009054906101000a900473ffffffffffffffffffffffffffffffffffffffff1673ffffffffffffffffffffffffffffffffffffffff167f8be0079c531659141344cd1fd0a4f28419497f9722a3daafe3b4186f6b6457e060405160405180910390a380600360006101000a81548173ffffffffffffffffffffffffffffffffffffffff021916908373ffffffffffffffffffffffffffffffffffffffff16021790555050565b600081600260003373ffffffffffffffffffffffffffffffffffffffff1673ffffffffffffffffffffffffffffffffffffffff16815260200190815260200160002060008573ffffffffffffffffffffffffffffffffffffffff1673ffffffffffffffffffffffffffffffffffffffff168152602001908152602001600020819055508273ffffffffffffffffffffffffffffffffffffffff163373ffffffffffffffffffffffffffffffffffffffff167f8c5be1e5ebec7d5bd14f71427d1e84f3dd0314c0f7b2291e5b200ac8c7c3b925846040518082815260200191505060405180910390a36001905092915050565b60008073ffffffffffffffffffffffffffffffffffffffff168373ffffffffffffffffffffffffffffffffffffffff161415151561139c57600080fd5b600160008573ffffffffffffffffffffffffffffffffffffffff1673ffffffffffffffffffffffffffffffffffffffff1681526020019081526020016000205482111515156113ea57600080fd5b600260008573ffffffffffffffffffffffffffffffffffffffff1673ffffffffffffffffffffffffffffffffffffffff16815260200190815260200160002060003373ffffffffffffffffffffffffffffffffffffffff1673ffffffffffffffffffffffffffffffffffffffff16815260200190815260200160002054821115151561147557600080fd5b6114c782600160008773ffffffffffffffffffffffffffffffffffffffff1673ffffffffffffffffffffffffffffffffffffffff16815260200190815260200160002054611ded90919063ffffffff16565b600160008673ffffffffffffffffffffffffffffffffffffffff1673ffffffffffffffffffffffffffffffffffffffff1681526020019081526020016000208190555061155c82600160008673ffffffffffffffffffffffffffffffffffffffff1673ffffffffffffffffffffffffffffffffffffffff1681526020019081526020016000205461171e90919063ffffffff16565b600160008573ffffffffffffffffffffffffffffffffffffffff1673ffffffffffffffffffffffffffffffffffffffff1681526020019081526020016000208190555061162e82600260008773ffffffffffffffffffffffffffffffffffffffff1673ffffffffffffffffffffffffffffffffffffffff16815260200190815260200160002060003373ffffffffffffffffffffffffffffffffffffffff1673ffffffffffffffffffffffffffffffffffffffff16815260200190815260200160002054611ded90919063ffffffff16565b600260008673ffffffffffffffffffffffffffffffffffffffff1673ffffffffffffffffffffffffffffffffffffffff16815260200190815260200160002060003373ffffffffffffffffffffffffffffffffffffffff1673ffffffffffffffffffffffffffffffffffffffff168152602001908152602001600020819055508273ffffffffffffffffffffffffffffffffffffffff168473ffffffffffffffffffffffffffffffffffffffff167fddf252ad1be2c89b69c2b068fc378daa952ba7f163c4a11628f55a4df523b3ef846040518082815260200191505060405180910390a3600190509392505050565b600080828401905083811015151561173257fe5b8091505092915050565b600080600260003373ffffffffffffffffffffffffffffffffffffffff1673ffffffffffffffffffffffffffffffffffffffff16815260200190815260200160002060008573ffffffffffffffffffffffffffffffffffffffff1673ffffffffffffffffffffffffffffffffffffffff1681526020019081526020016000205490508083111561184d576000600260003373ffffffffffffffffffffffffffffffffffffffff1673ffffffffffffffffffffffffffffffffffffffff16815260200190815260200160002060008673ffffffffffffffffffffffffffffffffffffffff1673ffffffffffffffffffffffffffffffffffffffff168152602001908152602001600020819055506118e1565b6118608382611ded90919063ffffffff16565b600260003373ffffffffffffffffffffffffffffffffffffffff1673ffffffffffffffffffffffffffffffffffffffff16815260200190815260200160002060008673ffffffffffffffffffffffffffffffffffffffff1673ffffffffffffffffffffffffffffffffffffffff168152602001908152602001600020819055505b8373ffffffffffffffffffffffffffffffffffffffff163373ffffffffffffffffffffffffffffffffffffffff167f8c5be1e5ebec7d5bd14f71427d1e84f3dd0314c0f7b2291e5b200ac8c7c3b925600260003373ffffffffffffffffffffffffffffffffffffffff1673ffffffffffffffffffffffffffffffffffffffff16815260200190815260200160002060008873ffffffffffffffffffffffffffffffffffffffff1673ffffffffffffffffffffffffffffffffffffffff168152602001908152602001600020546040518082815260200191505060405180910390a3600191505092915050565b60008073ffffffffffffffffffffffffffffffffffffffff168373ffffffffffffffffffffffffffffffffffffffff1614151515611a0a57600080fd5b600160003373ffffffffffffffffffffffffffffffffffffffff1673ffffffffffffffffffffffffffffffffffffffff168152602001908152602001600020548211151515611a5857600080fd5b611aaa82600160003373ffffffffffffffffffffffffffffffffffffffff1673ffffffffffffffffffffffffffffffffffffffff16815260200190815260200160002054611ded90919063ffffffff16565b600160003373ffffffffffffffffffffffffffffffffffffffff1673ffffffffffffffffffffffffffffffffffffffff16815260200190815260200160002081905550611b3f82600160008673ffffffffffffffffffffffffffffffffffffffff1673ffffffffffffffffffffffffffffffffffffffff1681526020019081526020016000205461171e90919063ffffffff16565b600160008573ffffffffffffffffffffffffffffffffffffffff1673ffffffffffffffffffffffffffffffffffffffff168152602001908152602001600020819055508273ffffffffffffffffffffffffffffffffffffffff163373ffffffffffffffffffffffffffffffffffffffff167fddf252ad1be2c89b69c2b068fc378daa952ba7f163c4a11628f55a4df523b3ef846040518082815260200191505060405180910390a36001905092915050565b6000611c8282600260003373ffffffffffffffffffffffffffffffffffffffff1673ffffffffffffffffffffffffffffffffffffffff16815260200190815260200160002060008673ffffffffffffffffffffffffffffffffffffffff1673ffffffffffffffffffffffffffffffffffffffff1681526020019081526020016000205461171e90919063ffffffff16565b600260003373ffffffffffffffffffffffffffffffffffffffff1673ffffffffffffffffffffffffffffffffffffffff16815260200190815260200160002060008573ffffffffffffffffffffffffffffffffffffffff1673ffffffffffffffffffffffffffffffffffffffff168152602001908152602001600020819055508273ffffffffffffffffffffffffffffffffffffffff163373ffffffffffffffffffffffffffffffffffffffff167f8c5be1e5ebec7d5bd14f71427d1e84f3dd0314c0f7b2291e5b200ac8c7c3b925600260003373ffffffffffffffffffffffffffffffffffffffff1673ffffffffffffffffffffffffffffffffffffffff16815260200190815260200160002060008773ffffffffffffffffffffffffffffffffffffffff1673ffffffffffffffffffffffffffffffffffffffff168152602001908152602001600020546040518082815260200191505060405180910390a36001905092915050565b6000828211151515611dfb57fe5b8183039050929150505600a165627a7a72305820e9ad52e3f30f4b41c8b5e18f60a5c8b6f14510b477a581f8cb282308837552490029",
  "source": "pragma solidity ^0.4.19;\n\nimport './math/SafeMath.sol';\nimport './ownership/Ownable.sol';\nimport './StandardCrowdsale.sol';\n\n/**\n * @title FinalizableCrowdsale\n * @dev Extension of Crowdsale where an owner can do extra work\n * after finishing.\n */\ncontract FinalizableCrowdsale is StandardCrowdsale, Ownable {\n  using SafeMath for uint256;\n\n  bool public isFinalized = false;\n\n  event Finalized();\n\n  /**\n   * @dev Must be called after crowdsale ends, to do some extra finalization\n   * work. Calls the contract's finalization function.\n   */\n  function finalize() onlyOwner public {\n    require(!isFinalized);\n\n    finalization();\n    Finalized();\n\n    isFinalized = true;\n  }\n\n  /**\n   * @dev Can be overridden to add finalization logic. The overriding function\n   * should call super.finalization() to ensure the chain of finalization is\n   * executed entirely.\n   */\n  function finalization() internal {\n  }\n}",
  "sourcePath": "/Users/rogerbaiget/Documents/projects/SmartContract/contracts/FinalizableCrowdsale.sol",
  "compiler": {
    "name": "solc",
    "version": "0.4.19+commit.c4cbbb05.Emscripten.clang"
  },
  "schemaVersion": "2.0.0",
  "updatedAt": "2018-03-02T13:02:56.468Z"
}